{
  "_format": "hh-sol-artifact-1",
  "contractName": "GrapeDraw",
  "sourceName": "contracts/GrapeDraw.sol",
  "abi": [
    {
      "inputs": [
        {
          "internalType": "uint256",
          "name": "_bidPrice",
          "type": "uint256"
        },
        {
          "internalType": "uint256",
          "name": "_commission",
          "type": "uint256"
        },
        {
          "internalType": "uint256",
          "name": "_duration",
          "type": "uint256"
        }
      ],
      "stateMutability": "nonpayable",
      "type": "constructor"
    },
    {
      "anonymous": false,
      "inputs": [
        {
          "indexed": true,
          "internalType": "address",
          "name": "previousOwner",
          "type": "address"
        },
        {
          "indexed": true,
          "internalType": "address",
          "name": "newOwner",
          "type": "address"
        }
      ],
      "name": "OwnershipTransferred",
      "type": "event"
    },
    {
      "inputs": [
        {
          "internalType": "uint256",
          "name": "_amount",
          "type": "uint256"
        }
      ],
      "name": "Bid",
      "outputs": [],
      "stateMutability": "payable",
      "type": "function"
    },
    {
      "inputs": [],
      "name": "DrawWinnerBid",
      "outputs": [],
      "stateMutability": "nonpayable",
      "type": "function"
    },
    {
      "inputs": [],
      "name": "StartNew",
      "outputs": [],
      "stateMutability": "nonpayable",
      "type": "function"
    },
    {
      "inputs": [],
      "name": "WithdrawCommission",
      "outputs": [],
      "stateMutability": "nonpayable",
      "type": "function"
    },
    {
      "inputs": [],
      "name": "WithdrawWinnings",
      "outputs": [],
      "stateMutability": "nonpayable",
      "type": "function"
    },
    {
      "inputs": [],
      "name": "bidPrice",
      "outputs": [
        {
          "internalType": "uint256",
          "name": "",
          "type": "uint256"
        }
      ],
      "stateMutability": "view",
      "type": "function"
    },
    {
      "inputs": [
        {
          "internalType": "uint256",
          "name": "",
          "type": "uint256"
        }
      ],
      "name": "bids",
      "outputs": [
        {
          "internalType": "address",
          "name": "",
          "type": "address"
        }
      ],
      "stateMutability": "view",
      "type": "function"
    },
    {
      "inputs": [],
      "name": "commission",
      "outputs": [
        {
          "internalType": "uint256",
          "name": "",
          "type": "uint256"
        }
      ],
      "stateMutability": "view",
      "type": "function"
    },
    {
      "inputs": [],
      "name": "currentLotteryId",
      "outputs": [
        {
          "internalType": "uint256",
          "name": "",
          "type": "uint256"
        }
      ],
      "stateMutability": "view",
      "type": "function"
    },
    {
      "inputs": [],
      "name": "duration",
      "outputs": [
        {
          "internalType": "uint256",
          "name": "",
          "type": "uint256"
        }
      ],
      "stateMutability": "view",
      "type": "function"
    },
    {
      "inputs": [],
      "name": "getBidsCount",
      "outputs": [
        {
          "internalType": "uint256",
          "name": "count",
          "type": "uint256"
        }
      ],
      "stateMutability": "view",
      "type": "function"
    },
    {
      "inputs": [
        {
          "internalType": "address",
          "name": "addr",
          "type": "address"
        }
      ],
      "name": "getWinningsForAddress",
      "outputs": [
        {
          "internalType": "uint256",
          "name": "",
          "type": "uint256"
        }
      ],
      "stateMutability": "view",
      "type": "function"
    },
    {
      "inputs": [
        {
          "internalType": "uint256",
          "name": "",
          "type": "uint256"
        }
      ],
      "name": "lotteries",
      "outputs": [
        {
          "internalType": "uint256",
          "name": "lotteryId",
          "type": "uint256"
        },
        {
          "internalType": "uint256",
          "name": "startTime",
          "type": "uint256"
        },
        {
          "internalType": "uint256",
          "name": "endTime",
          "type": "uint256"
        },
        {
          "internalType": "enum GrapeDraw.DrawState",
          "name": "state",
          "type": "uint8"
        },
        {
          "internalType": "address",
          "name": "winner",
          "type": "address"
        },
        {
          "internalType": "uint256",
          "name": "winnerAmount",
          "type": "uint256"
        }
      ],
      "stateMutability": "view",
      "type": "function"
    },
    {
      "inputs": [],
      "name": "owner",
      "outputs": [
        {
          "internalType": "address",
          "name": "",
          "type": "address"
        }
      ],
      "stateMutability": "view",
      "type": "function"
    },
    {
      "inputs": [],
      "name": "renounceOwnership",
      "outputs": [],
      "stateMutability": "nonpayable",
      "type": "function"
    },
    {
      "inputs": [
        {
          "internalType": "address",
          "name": "newOwner",
          "type": "address"
        }
      ],
      "name": "transferOwnership",
      "outputs": [],
      "stateMutability": "nonpayable",
      "type": "function"
    },
    {
      "inputs": [
        {
          "internalType": "address",
          "name": "",
          "type": "address"
        }
      ],
      "name": "winnings",
      "outputs": [
        {
          "internalType": "uint256",
          "name": "",
          "type": "uint256"
        }
      ],
      "stateMutability": "view",
      "type": "function"
    }
  ],
  "bytecode": "0x6080604052600060045560006005553480156200001b57600080fd5b50604051620020f7380380620020f783398181016040528101906200004191906200037d565b62000061620000556200009160201b60201c565b6200009960201b60201c565b8260018190555081600281905550806003819055506200008860016200015d60201b60201c565b505050620004f5565b600033905090565b60008060009054906101000a900473ffffffffffffffffffffffffffffffffffffffff169050816000806101000a81548173ffffffffffffffffffffffffffffffffffffffff021916908373ffffffffffffffffffffffffffffffffffffffff1602179055508173ffffffffffffffffffffffffffffffffffffffff168173ffffffffffffffffffffffffffffffffffffffff167f8be0079c531659141344cd1fd0a4f28419497f9722a3daafe3b4186f6b6457e060405160405180910390a35050565b806200021457600180811115620001795762000178620003d9565b5b60076000600554815260200190815260200160002060030160009054906101000a900460ff166001811115620001b457620001b3620003d9565b5b14620001f7576040517f08c379a0000000000000000000000000000000000000000000000000000000008152600401620001ee9062000469565b60405180910390fd5b6001600560008282546200020c9190620004ba565b925050819055505b6040518060c001604052806005548152602001428152602001600354426200023d9190620004ba565b815260200160006001811115620002595762000258620003d9565b5b8152602001600073ffffffffffffffffffffffffffffffffffffffff168152602001600081525060076000600554815260200190815260200160002060008201518160000155602082015181600101556040820151816002015560608201518160030160006101000a81548160ff02191690836001811115620002e157620002e0620003d9565b5b021790555060808201518160030160016101000a81548173ffffffffffffffffffffffffffffffffffffffff021916908373ffffffffffffffffffffffffffffffffffffffff16021790555060a0820151816004015590505050565b600080fd5b6000819050919050565b620003578162000342565b81146200036357600080fd5b50565b60008151905062000377816200034c565b92915050565b6000806000606084860312156200039957620003986200033d565b5b6000620003a98682870162000366565b9350506020620003bc8682870162000366565b9250506040620003cf8682870162000366565b9150509250925092565b7f4e487b7100000000000000000000000000000000000000000000000000000000600052602160045260246000fd5b600082825260208201905092915050565b7f43757272656e74204c6f7474657279206973206e6f742066696e697368656400600082015250565b600062000451601f8362000408565b91506200045e8262000419565b602082019050919050565b60006020820190508181036000830152620004848162000442565b9050919050565b7f4e487b7100000000000000000000000000000000000000000000000000000000600052601160045260246000fd5b6000620004c78262000342565b9150620004d48362000342565b9250828201905080821115620004ef57620004ee6200048b565b5b92915050565b611bf280620005056000396000f3fe6080604052600436106100fe5760003560e01c8063715018a6116100955780638da5cb5b116100645780638da5cb5b146102bd578063dd64e534146102e8578063e148919114610325578063ea3a149914610350578063f2fde38b1461038d576100fe565b8063715018a61461025c57806371827b7b146102735780637a183e841461028a57806387e0783b146102a6576100fe565b8063371da29e116100d1578063371da29e146101b25780634423c5f1146101c957806363505ae8146102065780636be4097c14610231576100fe565b80630fb5a6b4146101035780631398e0761461012e57806319afe4731461017057806335580df21461019b575b600080fd5b34801561010f57600080fd5b506101186103b6565b60405161012591906112d6565b60405180910390f35b34801561013a57600080fd5b5061015560048036038101906101509190611322565b6103bc565b60405161016796959493929190611407565b60405180910390f35b34801561017c57600080fd5b50610185610425565b60405161019291906112d6565b60405180910390f35b3480156101a757600080fd5b506101b061042b565b005b3480156101be57600080fd5b506101c7610492565b005b3480156101d557600080fd5b506101f060048036038101906101eb9190611322565b610534565b6040516101fd9190611468565b60405180910390f35b34801561021257600080fd5b5061021b610573565b60405161022891906112d6565b60405180910390f35b34801561023d57600080fd5b50610246610580565b60405161025391906112d6565b60405180910390f35b34801561026857600080fd5b50610271610586565b005b34801561027f57600080fd5b5061028861059a565b005b6102a4600480360381019061029f9190611322565b6106f5565b005b3480156102b257600080fd5b506102bb6108ea565b005b3480156102c957600080fd5b506102d2610c35565b6040516102df9190611468565b60405180910390f35b3480156102f457600080fd5b5061030f600480360381019061030a91906114af565b610c5e565b60405161031c91906112d6565b60405180910390f35b34801561033157600080fd5b5061033a610ca7565b60405161034791906112d6565b60405180910390f35b34801561035c57600080fd5b50610377600480360381019061037291906114af565b610cad565b60405161038491906112d6565b60405180910390f35b34801561039957600080fd5b506103b460048036038101906103af91906114af565b610cc5565b005b60035481565b60076020528060005260406000206000915090508060000154908060010154908060020154908060030160009054906101000a900460ff16908060030160019054906101000a900473ffffffffffffffffffffffffffffffffffffffff16908060040154905086565b60015481565b610433610d48565b60003390506000600454905060006004819055508173ffffffffffffffffffffffffffffffffffffffff166108fc829081150290604051600060405180830381858888f1935050505015801561048d573d6000803e3d6000fd5b505050565b61049a610d48565b60018060018111156104af576104ae61134f565b5b60076000600554815260200190815260200160002060030160009054906101000a900460ff1660018111156104e7576104e661134f565b5b14610527576040517f08c379a000000000000000000000000000000000000000000000000000000000815260040161051e90611539565b60405180910390fd5b6105316000610dc6565b50565b6008818154811061054457600080fd5b906000526020600020016000915054906101000a900473ffffffffffffffffffffffffffffffffffffffff1681565b6000600880549050905090565b60055481565b61058e610d48565b6105986000610f92565b565b6000600660003373ffffffffffffffffffffffffffffffffffffffff1673ffffffffffffffffffffffffffffffffffffffff168152602001908152602001600020541161061c576040517f08c379a0000000000000000000000000000000000000000000000000000000008152600401610613906115a5565b60405180910390fd5b60003390506000600660008373ffffffffffffffffffffffffffffffffffffffff1673ffffffffffffffffffffffffffffffffffffffff1681526020019081526020016000205490506000600660008473ffffffffffffffffffffffffffffffffffffffff1673ffffffffffffffffffffffffffffffffffffffff168152602001908152602001600020819055508173ffffffffffffffffffffffffffffffffffffffff166108fc829081150290604051600060405180830381858888f193505050501580156106f0573d6000803e3d6000fd5b505050565b600080600181111561070a5761070961134f565b5b60076000600554815260200190815260200160002060030160009054906101000a900460ff1660018111156107425761074161134f565b5b14610782576040517f08c379a000000000000000000000000000000000000000000000000000000000815260040161077990611539565b60405180910390fd5b600760006005548152602001908152602001600020600201544211156107dd576040517f08c379a00000000000000000000000000000000000000000000000000000000081526004016107d490611611565b60405180910390fd5b34600154836107ec9190611660565b14610803600154846107fe9190611660565b611056565b604051602001610813919061175f565b60405160208183030381529060405290610863576040517f08c379a000000000000000000000000000000000000000000000000000000000815260040161085a91906117de565b60405180910390fd5b5060005b828110156108e5576008339080600181540180825580915050600190039060005260206000200160009091909190916101000a81548173ffffffffffffffffffffffffffffffffffffffff021916908373ffffffffffffffffffffffffffffffffffffffff16021790555080806108dd90611800565b915050610867565b505050565b6108f2610d48565b60008060018111156109075761090661134f565b5b60076000600554815260200190815260200160002060030160009054906101000a900460ff16600181111561093f5761093e61134f565b5b1461097f576040517f08c379a000000000000000000000000000000000000000000000000000000000815260040161097690611539565b60405180910390fd5b6000600880549050116109c7576040517f08c379a00000000000000000000000000000000000000000000000000000000081526004016109be90611894565b60405180910390fd5b60006008805490504311156109ef57600880549050436109e791906118b4565b409050610a04565b43600880549050610a0091906118b4565b4090505b60004282604051602001610a19929190611934565b6040516020818303038152906040528051906020012060001c9050600060088054905082610a47919061198f565b9050600060088281548110610a5f57610a5e6119c0565b5b9060005260206000200160009054906101000a900473ffffffffffffffffffffffffffffffffffffffff1690508060076000600554815260200190815260200160002060030160016101000a81548173ffffffffffffffffffffffffffffffffffffffff021916908373ffffffffffffffffffffffffffffffffffffffff160217905550600254600154610af391906118b4565b600880549050610b039190611660565b600660008373ffffffffffffffffffffffffffffffffffffffff1673ffffffffffffffffffffffffffffffffffffffff1681526020019081526020016000206000828254610b5191906119ef565b92505081905550600660008273ffffffffffffffffffffffffffffffffffffffff1673ffffffffffffffffffffffffffffffffffffffff1681526020019081526020016000205460076000600554815260200190815260200160002060040181905550600254600880549050610bc79190611660565b60046000828254610bd891906119ef565b9250508190555060086000610bed919061127f565b600160076000600554815260200190815260200160002060030160006101000a81548160ff02191690836001811115610c2957610c2861134f565b5b02179055505050505050565b60008060009054906101000a900473ffffffffffffffffffffffffffffffffffffffff16905090565b6000600660008373ffffffffffffffffffffffffffffffffffffffff1673ffffffffffffffffffffffffffffffffffffffff168152602001908152602001600020549050919050565b60025481565b60066020528060005260406000206000915090505481565b610ccd610d48565b600073ffffffffffffffffffffffffffffffffffffffff168173ffffffffffffffffffffffffffffffffffffffff1603610d3c576040517f08c379a0000000000000000000000000000000000000000000000000000000008152600401610d3390611a95565b60405180910390fd5b610d4581610f92565b50565b610d50611124565b73ffffffffffffffffffffffffffffffffffffffff16610d6e610c35565b73ffffffffffffffffffffffffffffffffffffffff1614610dc4576040517f08c379a0000000000000000000000000000000000000000000000000000000008152600401610dbb90611b01565b60405180910390fd5b565b80610e7157600180811115610dde57610ddd61134f565b5b60076000600554815260200190815260200160002060030160009054906101000a900460ff166001811115610e1657610e1561134f565b5b14610e56576040517f08c379a0000000000000000000000000000000000000000000000000000000008152600401610e4d90611b6d565b60405180910390fd5b600160056000828254610e6991906119ef565b925050819055505b6040518060c00160405280600554815260200142815260200160035442610e9891906119ef565b815260200160006001811115610eb157610eb061134f565b5b8152602001600073ffffffffffffffffffffffffffffffffffffffff168152602001600081525060076000600554815260200190815260200160002060008201518160000155602082015181600101556040820151816002015560608201518160030160006101000a81548160ff02191690836001811115610f3657610f3561134f565b5b021790555060808201518160030160016101000a81548173ffffffffffffffffffffffffffffffffffffffff021916908373ffffffffffffffffffffffffffffffffffffffff16021790555060a0820151816004015590505050565b60008060009054906101000a900473ffffffffffffffffffffffffffffffffffffffff169050816000806101000a81548173ffffffffffffffffffffffffffffffffffffffff021916908373ffffffffffffffffffffffffffffffffffffffff1602179055508173ffffffffffffffffffffffffffffffffffffffff168173ffffffffffffffffffffffffffffffffffffffff167f8be0079c531659141344cd1fd0a4f28419497f9722a3daafe3b4186f6b6457e060405160405180910390a35050565b6060600060016110658461112c565b01905060008167ffffffffffffffff81111561108457611083611b8d565b5b6040519080825280601f01601f1916602001820160405280156110b65781602001600182028036833780820191505090505b509050600082602001820190505b600115611119578080600190039150507f3031323334353637383961626364656600000000000000000000000000000000600a86061a8153600a858161110d5761110c611960565b5b049450600085036110c4575b819350505050919050565b600033905090565b600080600090507a184f03e93ff9f4daa797ed6e38ed64bf6a1f010000000000000000831061118a577a184f03e93ff9f4daa797ed6e38ed64bf6a1f01000000000000000083816111805761117f611960565b5b0492506040810190505b6d04ee2d6d415b85acef810000000083106111c7576d04ee2d6d415b85acef810000000083816111bd576111bc611960565b5b0492506020810190505b662386f26fc1000083106111f657662386f26fc1000083816111ec576111eb611960565b5b0492506010810190505b6305f5e100831061121f576305f5e100838161121557611214611960565b5b0492506008810190505b612710831061124457612710838161123a57611239611960565b5b0492506004810190505b60648310611267576064838161125d5761125c611960565b5b0492506002810190505b600a8310611276576001810190505b80915050919050565b508054600082559060005260206000209081019061129d91906112a0565b50565b5b808211156112b95760008160009055506001016112a1565b5090565b6000819050919050565b6112d0816112bd565b82525050565b60006020820190506112eb60008301846112c7565b92915050565b600080fd5b6112ff816112bd565b811461130a57600080fd5b50565b60008135905061131c816112f6565b92915050565b600060208284031215611338576113376112f1565b5b60006113468482850161130d565b91505092915050565b7f4e487b7100000000000000000000000000000000000000000000000000000000600052602160045260246000fd5b6002811061138f5761138e61134f565b5b50565b60008190506113a08261137e565b919050565b60006113b082611392565b9050919050565b6113c0816113a5565b82525050565b600073ffffffffffffffffffffffffffffffffffffffff82169050919050565b60006113f1826113c6565b9050919050565b611401816113e6565b82525050565b600060c08201905061141c60008301896112c7565b61142960208301886112c7565b61143660408301876112c7565b61144360608301866113b7565b61145060808301856113f8565b61145d60a08301846112c7565b979650505050505050565b600060208201905061147d60008301846113f8565b92915050565b61148c816113e6565b811461149757600080fd5b50565b6000813590506114a981611483565b92915050565b6000602082840312156114c5576114c46112f1565b5b60006114d38482850161149a565b91505092915050565b600082825260208201905092915050565b7f57726f6e67207374617465000000000000000000000000000000000000000000600082015250565b6000611523600b836114dc565b915061152e826114ed565b602082019050919050565b6000602082019050818103600083015261155281611516565b9050919050565b7f4e6f7420612077696e6e65720000000000000000000000000000000000000000600082015250565b600061158f600c836114dc565b915061159a82611559565b602082019050919050565b600060208201905081810360008301526115be81611582565b9050919050565b7f746865206c6f747465727920697320656e646564000000000000000000000000600082015250565b60006115fb6014836114dc565b9150611606826115c5565b602082019050919050565b6000602082019050818103600083015261162a816115ee565b9050919050565b7f4e487b7100000000000000000000000000000000000000000000000000000000600052601160045260246000fd5b600061166b826112bd565b9150611676836112bd565b9250828202611684816112bd565b9150828204841483151761169b5761169a611631565b5b5092915050565b7f7468652076616c7565206d757374206265200000000000000000000000000000815250565b600081519050919050565b600081905092915050565b60005b838110156116fc5780820151818401526020810190506116e1565b60008484015250505050565b6000611713826116c8565b61171d81856116d3565b935061172d8185602086016116de565b80840191505092915050565b7f205765692e200000000000000000000000000000000000000000000000000000815250565b600061176a826116a2565b60128201915061177a8284611708565b915061178582611739565b60068201915081905092915050565b6000601f19601f8301169050919050565b60006117b0826116c8565b6117ba81856114dc565b93506117ca8185602086016116de565b6117d381611794565b840191505092915050565b600060208201905081810360008301526117f881846117a5565b905092915050565b600061180b826112bd565b91507fffffffffffffffffffffffffffffffffffffffffffffffffffffffffffffffff820361183d5761183c611631565b5b600182019050919050565b7f4e6f206269647300000000000000000000000000000000000000000000000000600082015250565b600061187e6007836114dc565b915061188982611848565b602082019050919050565b600060208201905081810360008301526118ad81611871565b9050919050565b60006118bf826112bd565b91506118ca836112bd565b92508282039050818111156118e2576118e1611631565b5b92915050565b6000819050919050565b6119036118fe826112bd565b6118e8565b82525050565b6000819050919050565b6000819050919050565b61192e61192982611909565b611913565b82525050565b600061194082856118f2565b602082019150611950828461191d565b6020820191508190509392505050565b7f4e487b7100000000000000000000000000000000000000000000000000000000600052601260045260246000fd5b600061199a826112bd565b91506119a5836112bd565b9250826119b5576119b4611960565b5b828206905092915050565b7f4e487b7100000000000000000000000000000000000000000000000000000000600052603260045260246000fd5b60006119fa826112bd565b9150611a05836112bd565b9250828201905080821115611a1d57611a1c611631565b5b92915050565b7f4f776e61626c653a206e6577206f776e657220697320746865207a65726f206160008201527f6464726573730000000000000000000000000000000000000000000000000000602082015250565b6000611a7f6026836114dc565b9150611a8a82611a23565b604082019050919050565b60006020820190508181036000830152611aae81611a72565b9050919050565b7f4f776e61626c653a2063616c6c6572206973206e6f7420746865206f776e6572600082015250565b6000611aeb6020836114dc565b9150611af682611ab5565b602082019050919050565b60006020820190508181036000830152611b1a81611ade565b9050919050565b7f43757272656e74204c6f7474657279206973206e6f742066696e697368656400600082015250565b6000611b57601f836114dc565b9150611b6282611b21565b602082019050919050565b60006020820190508181036000830152611b8681611b4a565b9050919050565b7f4e487b7100000000000000000000000000000000000000000000000000000000600052604160045260246000fdfea2646970667358221220874e610031351a5c1f909b2e99a921a2a55b59611e496237b462bdd11b9fb8dd64736f6c63430008120033",
  "linkReferences": {},
  "deployedLinkReferences": {}
}